:10E000000C949A700C94B7700C94B7700C94B77011
:10E010000C94B7700C94B7700C94B7700C94B770E4
:10E020000C94B7700C94B7700C94B7700C94B770D4
:10E030000C94B7700C94B7700C94B7700C94B770C4
:10E040000C94B7700C94B7700C94B7700C94B770B4
:10E050000C94B7700C94B7700C94B7700C94B770A4
:10E060000C94B7700C94B7700C94B7700C94B77094
:10E070000C94B7700C94B7700C94B7700C94B77084
:10E080000C94B7700C94B7700C94B7700C94B77074
:10E090000C94B7700C94B7700C94B7700C94B77064
:10E0A0000C94B7700C94B7700C94B7700C94B77054
:10E0B0000C94B7700C94B7700C94B7700C94B77044
:10E0C0000C94B7700C94B7700C94B7700C94B77034
:10E0D0000C94B7700C94B7700C94B7700C94B77024
:10E0E0000C94B7700C94B7700C94B7700C94B77014
:10E0F0000C94B7700C94B7700C94B7700C94B77004
:10E100000C94B7700C94B7700C94B7700C94B770F3
:10E110000C94B7700C94B7700C94B7700C94B770E3
:10E120000C94B7700C94B7700C94B7700C94B770D3
:10E130000C94B77011241FBECFEFD1E2DEBFCDBF6C
:10E1400012E0A0E0B2E0ECE4F8EE02C005900D921F
:10E15000A230B107D9F723E0A2E0B2E001C01D92DE
:10E16000AD30B207E1F70E94C6710C9424740C9490
:10E17000007090910502913019F0923041F00895AD
:10E180009091C00095FFFCCF8093C60008959091B8
:10E19000C80095FFFCCF8093CE000895CF93982FB1
:10E1A0009595959595959595905D8F70C82F8A302A
:10E1B00044F4C05D892F0E94B9708C2FCF910C94CC
:10E1C000B970C95A892F0E94B9708C2FCF910C94C5
:10E1D000B970CF92DF92EF92FF9280910502813069
:10E1E00061F1823031F080E0FF90EF90DF90CF90CE
:10E1F0000895C12CD12C76018091C80087FD16C0EE
:10E200008FEFC81AD80AE80AF80A81E4C81682E42F
:10E21000D8068FE0E806F10478F3E0910202F0916D
:10E22000030209958091C80087FFEACF8091CE0054
:10E23000FF90EF90DF90CF900895C12CD12C760104
:10E240008091C00087FD16C08FEFC81AD80AE80A6F
:10E25000F80A81E4C81682E4D8068FE0E806F104E3
:10E2600078F3E0910202F091030209958091C000D9
:10E2700087FFEACF8091C600FF90EF90DF90CF90AC
:10E280000895CF930E94E970C82F0E94B970C136DB
:10E2900034F4C0330CF0C0538C2FCF910895C75580
:10E2A0008C2FCF910895CF930E944171C82F0E9467
:10E2B000417190E1C99F800D1124CF910895209163
:10E2C0000502815060F0213059F02230D1F7909151
:10E2D000C80097FFFCCF9091CE008150A0F7089521
:10E2E0009091C00097FFFCCF9091C600EACFCF93EA
:10E2F000C82F0E94E970803279F0809104028F5F0C
:10E3000080930402853011F0CF910895E0910202CC
:10E31000F0910302CF91099484E10E94B9708C2F8F
:10E320000E94B97080E1CF910C94B9700E94E9709D
:10E33000803269F0809104028F5F809304028530FF
:10E3400009F00895E0910202F0910302099484E13A
:10E350000E94B97080E10C94B97015C02F9A2FEF0C
:10E3600031EE94E0215030409040E1F700C00000D1
:10E370002F982FEF31EE94E0215030409040E1F79C
:10E3800000C0000081508111E9CF0895000081E0B4
:10E390008093050280E18093C4001092C500109222
:10E3A000C00086E08093C20088E18093C100689835
:10E3B000709A279A81E02F9A2FEF31EE94E0215046
:10E3C00030409040E1F700C000002F98EFEFF1EEF1
:10E3D00024E0E150F0402040E1F700C00000982F19
:10E3E00081509111E8CFDD24D3940E94E9708033ED
:10E3F000B1F18133B9F1803409F454C0813409F4A6
:10E400005AC0823409F469C0853409F46CC080357F
:10E4100031F1823521F1813511F1853509F469C079
:10E42000863509F471C0843609F477C0843709F45D
:10E43000EEC0853709F43FC1863709F44AC08091A0
:10E4400004028F5F80930402853079F6E091020226
:10E45000F091030209950E94E970803351F60E9401
:10E460009671C3CF0E94E970803249F784E10E941F
:10E47000B97081E40E94B97086E50E94B97082E5A6
:10E480000E94B97080E20E94B97089E40E94B9705C
:10E4900083E50E94B97080E50E94B97080E10E9416
:10E4A000B970A3CF0E94E9708638C8F20E94E97063
:10E4B0000E9496719ACF0E94E970803809F410C1C9
:10E4C000813809F411C1823809F412C1883909F47C
:10E4D0009AC080E00E94777188CF84E10E945F71CA
:10E4E0000E94967182CF85E00E945F710E949671B2
:10E4F0007CCF0E94E970809306020E94E9708093AD
:10E5000007020E94967171CF0E94E970803309F46E
:10E510006DC083E00E945F71DCCF0E94E970809340
:10E5200009030E94E9708093080380910C038E7F99
:10E5300080930C030E94E970853409F4E1C0809156
:10E54000080390910903892BA1F068E0E62E62E0B0
:10E55000F62E00E010E00E94E970F70181937F0140
:10E560000F5F1F4F80910803909109030817190747
:10E5700090F30E94E970803209F061CF80910C0322
:10E5800080FFD7C08091060290910702880F991FE3
:10E5900090930702809306022091080330910903AB
:10E5A000232BE9F048E0E42E42E0F42E00E010E0F6
:10E5B000F70161917F010E9416748091060290918B
:10E5C0000702019690930702809306020F5F1F4F88
:10E5D00020910803309109030217130748F384E1DF
:10E5E0000E94B97080E10E94B970FFCE0E94E9706C
:10E5F0000E94E970182F0E94E970112309F40AC1E2
:10E60000113009F479C083E00E947771EECE0E9448
:10E61000E970809309030E94E97080930803809158
:10E62000060290910702880F991F9093070280932A
:10E6300006020E94E970853409F475C080910C03CC
:10E640008E7F80930C030E94E970803209F0CDCE5A
:10E6500084E10E94B97020910803309109032115CB
:10E660003105D1F100E010E080910602909107029F
:10E670000CC041FF4BC001969093070280930602A5
:10E680000F5F1F4F0217130738F540910C0340FF2F
:10E69000F0CF0E940E740E94B97080910602909192
:10E6A00007020196909307028093060220910803C7
:10E6B00030910903E5CF0E94E970803209F0BFCEA6
:10E6C00084E10E94B9708EE10E94B97086EA0E94CE
:10E6D000B97083E00E94B97080E10E94B97085CE64
:10E6E00082E00E94777181CE81E00E9477717DCEB9
:10E6F00080E10E94777179CE86EA0E94777175CEAB
:10E7000080910C03816080930C0319CFFC018491EC
:10E710000E94B9702091080330910903809106028C
:10E7200090910702A8CF80910C03816080930C0325
:10E730008ACF80910702880F880B8D2180930B036D
:10E740008091060290910702880F991F909307020B
:10E75000809306028091080380FF09C0809108031E
:10E760009091090301969093090380930803F8940C
:10E77000F999FECF1127E0910602F0910702C8E057
:10E78000D2E08091080390910903103091F4009138
:10E79000570001700130D9F303E000935700E8956A
:10E7A0000091570001700130D9F301E10093570047
:10E7B000E895099019900091570001700130D9F344
:10E7C00001E000935700E8951395103898F0112751
:10E7D0000091570001700130D9F305E00093570014
:10E7E000E8950091570001700130D9F301E10093E1
:10E7F0005700E8953296029709F0C7CF103011F014
:10E800000296E5CF112484E10E94B97080E10E9454
:10E81000B970EBCD8EE10E947771E7CDF999FECF0B
:10E8200092BD81BDF89A992780B50895262FF99950
:10E83000FECF1FBA92BD81BD20BD0FB6F894FA9AE3
:0CE84000F99A0FBE01960895F894FFCFDE
:02E84C0080004A
:040000030000E00019
:00000001FF
